:020000040000FA
:10000000680500206D02000071020000730200000C
:100010007502000077020000790200000000000075
:100020000000000000000000000000007B02000053
:100030007D020000000000007F020000810200003D
:10004000830200008302000083020000830200009C
:10005000830200008302000083020000830200008C
:10006000830200008302000083020000830200007C
:10007000830200008302000083020000830200006C
:10008000830200008302000083020000830200005C
:10009000830200008302000083020000830200004C
:1000A000830200008302000083020000830200003C
:1000B0008302000083020000CD03000083020000E1
:1000C000830200008302000083020000830200001C
:1000D000830200008302000083020000830200000C
:1000E00083020000830200008302000083020000FC
:1000F00083020000830200008302000083020000EC
:1001000083020000830200008302000083020000DB
:1001100083020000830200008302000083020000CB
:1001200083020000830200008302000083020000BB
:1001300083020000830200008302000083020000AB
:1001400000000000000000000000000000000000AF
:10015000830200008302000083020000830200008B
:10016000000000000000000000000000000000008F
:10017000000000000000000000000000000000007F
:10018000000000000000000000000000000000006F
:10019000000000000000000000000000000000005F
:1001A000000000000000000000000000000000004F
:1001B000830200008302000083020000830200002B
:1001C000830200008302000083020000830200001B
:1001D000830200008302000083020000830200000B
:1001E00083020000830200008302000083020000FB
:1001F00083020000830200008302000083020000EB
:10020000830200008302000083020000000000005F
:1002100083020000830200008302000083020000CA
:1002200083020000830200008302000083020000BA
:1002300083020000830200008302000083020000AA
:10024000830200008302000083020000830200009A
:10025000830200008302000083020000830200008A
:1002600083020000830200008302000000F00AB84D
:10027000FEE7FEE7FEE7FEE7FEE7FEE7FEE7FEE756
:10028000FEE7FEE700F002F800F02CF80AA090E884
:10029000000C82448344AAF10107DA4501D100F041
:1002A00021F8AFF2090EBAE80F0013F0010F18BFE2
:1002B000FB1A43F001031847380B0000480B0000FD
:1002C0000023002400250026103A28BF78C1FBD85F
:1002D000520728BF30C148BF0B6070471FB51FBD14
:1002E00010B510BD00F029F81146FFF7F7FF00F038
:1002F0004DFC00F047F803B4FFF7F2FF03BC00F039
:100300004FF8000072B6704762B67047EFF3108086
:1003100072B6704780F31088704730BF704702484C
:100320000249014A024B704768010020680500201D
:1003300068010020704770477047754600F02CF840
:10034000AE4605006946534620F00700854618B0C2
:1003500020B5FFF7E4FFBDE820404FF000064FF066
:1003600000074FF000084FF0000BAC46ACE8C009A6
:10037000ACE8C009ACE8C009ACE8C00921F007014D
:100380008D46704710B50446AFF300802046BDE8A7
:100390001040FFF7B0BF0000004870470000002089
:1003A00001491820ABBEFEE726000200704700009E
:1003B00081B00090FFE7009801380090FFE70098B7
:1003C0000028F8D1FFE701B07047000080B540F287
:1003D0006000C2F20000007832285DD1FFE745F2EC
:1003E0001440C4F202000068C00600282BD5FFE7C5
:1003F00044F28550C0F20100FFF7DAFF45F21C41DC
:10040000C4F202011020086040F26100C2F2000054
:10041000017801314AF6AB22CAF6AA22A1FB0232C8
:10042000920802EB4202A1EB42010170017840F612
:10043000C850C0F2000050F8210045F2FC31C4F26F
:1004400002010860FFE745F21440C4F202000068B0
:10045000C00700B3FFE744F28550C0F20100FFF788
:10046000A7FF45F21C41C4F202010120086040F2DE
:100470006100C2F20000017840F6C850C0F20000EE
:1004800010F8210000F010FB40F26001C2F2000100
:1004900030200870FFE7FFE740F26000C2F2000082
:1004A000007833282FD1FFE745F21440C4F2020050
:1004B0000068C006002825D5FFE744F28550C0F249
:1004C0000100FFF775FF45F21C41C4F20201102044
:1004D0000860312000F0E8FA40F6E050C0F2000079
:1004E00000F0FAFA40F26200C2F2000000F0F4FA02
:1004F0000D2000F0D9FA40F26001C2F20001302074
:100500000870FFE7FFE780BD81B04EF20810C4F22B
:100510000F00016841F0200101600068009045F281
:100520002051C4F2020144F24B30C4F64F4008603F
:1005300045F22451C4F20201086840F01F0008602F
:1005400045F22851C4F20201086820F01F0008603B
:1005500045F22C51C4F2020108686FF313000860E1
:1005600045F20041C4F20201086840F00E00086044
:10057000086820F01100086045F21C51C4F2020125
:10058000086840F01F00086045F22041C4F20201F3
:10059000086820F01F00086045F21051C4F2020103
:1005A000086840F01100086045F20441C4F20201FD
:1005B000086820F01100086045F20841C4F2020109
:1005C000086820F01100086045F20C41C4F20201F5
:1005D000086840F01100086045F21C41C4F20201B5
:1005E0001120086045F21041C4F20201086840F091
:1005F000110008604EF21C41CEF2000108680A2288
:1006000062F3175008604EF20011CEF20001086844
:1006100040F08040086001B07047000080B500F0F5
:10062000ABF945F2FC31C4F202010860FFE740F289
:100630006000C2F200000078322803D1FFE7FFF724
:100640006CFEF4E780BD000080B582B040F260012E
:10065000C2F200013320087040F26200C2F20000D2
:100660000190FF2100F09AF900F012F8019800F0D3
:1006700007F9FFE740F26000C2F20000007833287B
:1006800003D1FFE7FFF749FEF4E702B080BD0000A9
:1006900080B582B000200190FFE70198B0F5FC7FA3
:1006A00009DAFFE70120002100F028FAFFE70198AE
:1006B00001300190F1E70021084600F0F3F802B0A4
:1006C00080BD000080B582B04EF20411C4F20F016B
:1006D000086840F0100008604EF20810C4F20F00E5
:1006E000016841F0010101600068019044F200419D
:1006F000C4F20001086840F0C000086044F22041E4
:10070000C4F20001086840F02C000860086820F07E
:10071000C000086044F21C51C4F20001086840F0B7
:10072000EC00086044F22C51C4F200010868FF227A
:10073000CFF60F72104042F20022C0F220021043A6
:100740000860086820F07F40086044F22851C4F235
:100750000001086820F0EC00086048F20401C4F2CF
:100760000001086820F002000860086820F004001A
:10077000086048F6C872C4F20002106820F00F004A
:10078000106048F21002C4F200021068102363F3F4
:100790000700106048F20002C4F2000210684FF631
:1007A000C07398431060106820F03000106010682B
:1007B000072363F303001060086840F0020008603C
:1007C00044F20021C4F20001002008600190FFE71C
:1007D0000198092805D8FFE7FFE70198013001904B
:1007E000F6E744F20021C4F20001802008600020F6
:1007F0000090212100F082F900986FF05F0100F075
:100800007DF90098042100F079F90098142100F096
:1008100075F90098202100F071F900980C2100F082
:100820006DF902B080BD000080B584B08DF80F0076
:1008300001200021019100F061F901980290FFE789
:100840000298042815DCFFE79DF80F0000EB8000FC
:1008500040F6E631C0F2000108440299084410F95C
:10086000A01C012000F04AF9FFE702980130029035
:10087000E6E70120002100F041F904B080BD00004E
:1008800080B582B00190FFE70198007840B1FFE7A2
:1008900001980078FFF7C8FF019801300190F3E755
:1008A00002B080BD80B582B08DF807008DF80610CB
:1008B0009DF807000B2805DCFFE79DF806000628D9
:1008C00001DBFFE713E09DF80700C0EBC00040F03C
:1008D000800041B20020009000F010F900989DF8CF
:1008E000061041F0400149B200F008F9FFE702B0FC
:1008F00080BD000081B04EF27001C4F20F01009182
:10090000086840F000400860086840F40060086033
:100910004EF26002C4F20F02106820F4F86010601A
:10092000106800F5A8601060086820F0700008608A
:1009300008680860086820F400500860086840F003
:10094000804008600868072262F39C500860FFE757
:100950004EF25000C4F20F0000684006002801D497
:10096000FFE7F5E74EF27001C4F20F01086820F4CA
:100970000060086001B07047FFE74DF21800C4F254
:1009800000000068C006002801D5FFE7F5E74DF23A
:100990000000C4F200000068C0B2704780B586B0A5
:1009A0000590ADF8121000200390FFF7E5FF8DF8D9
:1009B0000B00FFE79DF90B1000200D2901900AD0D4
:1009C000FFE70399BDF81200421E00209142B8BF14
:1009D00001200190FFE70198C00778B1FFE79DF87B
:1009E0000B000599087005980130059003980130B7
:1009F0000390FFF7C1FF8DF80B00DBE7059900209E
:100A0000087006B080BD00004EF21861C4F20F01FC
:100A1000086840F0020008604EF20811C4F20F01AD
:100A2000086840F0020008604DF23001C4F2000195
:100A3000086820F0010008604DF22402C4F20002B0
:100A40001B2010604DF22802C4F200020820106042
:100A50004DF22C02C4F200027020106040F201300E
:100A6000086045F22041C4F20001086840F003002C
:100A7000086045F22C51C4F200010868112262F3AB
:100A80000700086045F21C51C4F20001086840F0FC
:100A90000300086045F22851C4F20001086820F004
:100AA000030008607047000081B08DF80300FFE785
:100AB0004DF21800C4F2000000688006002801D53D
:100AC000FFE7F5E79DF803004DF20001C4F20001D5
:100AD000086001B07047000080B582B00190FFE768
:100AE0000198007840B1FFE701980078FFF7DCFF3C
:100AF000019801300190F3E702B080BD81B08DF81C
:100B000003008DF802109DF8030020BBFFE7FFE70C
:100B100048F20C00C4F200000068C006002801D5AD
:100B2000FFE7F5E744F20011C4F20001002008607D
:100B30009DF9020048F20801C4F200010860FFE7D5
:100B400048F20C00C4F200000068C006002801D57D
:100B5000FFE7F5E718E0FFE748F20C00C4F20000F9
:100B600000688007002801D4FFE7F5E744F2001190
:100B7000C4F20001402008609DF9020048F208011B
:100B8000C4F200010860FFE701B0704780B584B08F
:100B900000200390FFF7B6FBFFF736FFFFF7AAFE32
:100BA000FFF7B2FCFFF78EFDFFF772FDFFF7ACFB1E
:100BB000FFE7FFF7E1FE014640F26000C2F20000ED
:100BC0000170007801460191322804D0FFE70198B6
:100BD000332803D005E0FFF721FD03E0FFF734FDE4
:100BE00000E0FFE7E5E7000000000000005F000014
:100BF0000007000700147F147F14242A7F2A122381
:100C00001308646236495522500005030000001C99
:100C10002241000041221C0014083E081408083E2E
:100C2000080800503000000808080808006060004C
:100C30000020100804023E5149453E00427F40001A
:100C400042615149462141454B311814127F10270A
:100C5000454545393C4A4949300171090503364942
:100C6000494936064949291E0036360000005636E5
:100C7000000008142241001414141414004122141A
:100C8000080201510906324979413E7E1111117E57
:100C90007F494949363E414141227F4141221C7FE3
:100CA000494949417F090909013E4149497A7F087B
:100CB00008087F00417F41002040413F017F081428
:100CC00022417F404040407F020C027F7F04081099
:100CD0007F3E4141413E7F090909063E4151215E67
:100CE0007F09192946464949493101017F01013FE0
:100CF0004040403F1F2040201F3F4038403F63148A
:100D000008146307087008076151494543007F4193
:100D1000410002040810200041417F00040201024A
:100D200004404040404000010204002054545478E4
:100D30007F484444383844444420384444487F3849
:100D400054545418087E0901020C5252523E7F0836
:100D500004047800447D40002040443D007F10287A
:100D6000440000417F40007C041804787C0804049F
:100D70007838444444387C14141408081414187C3B
:100D80007C080404084854545420043F4440203C48
:100D90004040207C1C2040201C3C4030403C4428EB
:100DA0001028440C5050503C4464544C44000836C5
:100DB000410000007F0000004136080010080810C4
:100DC000083E207C547C0000020000000800000067
:100DD00004000000060000000E00000000000000FB
:100DE000492072656369657665643A2000000000F9
:100DF000000E00000000002068050000C002000096
:040000050000026D88
:00000001FF
