:020000040000FA
:10000000680400206D02000071020000730200000D
:100010007502000077020000790200000000000075
:100020000000000000000000000000007B02000053
:100030007D020000000000007F020000810200003D
:10004000830200008302000083020000830200009C
:10005000830200008302000083020000830200008C
:10006000830200008302000083020000830200007C
:10007000830200008302000083020000830200006C
:10008000830200008302000083020000830200005C
:10009000830200008302000083020000830200004C
:1000A000830200008302000083020000830200003C
:1000B0008302000083020000CD03000083020000E1
:1000C000830200008302000083020000830200001C
:1000D000830200008302000083020000830200000C
:1000E00083020000830200008302000083020000FC
:1000F00083020000830200008302000083020000EC
:1001000083020000830200008302000083020000DB
:1001100083020000830200008302000083020000CB
:1001200083020000830200008302000083020000BB
:1001300083020000830200008302000083020000AB
:1001400000000000000000000000000000000000AF
:10015000830200008302000083020000830200008B
:10016000000000000000000000000000000000008F
:10017000000000000000000000000000000000007F
:10018000000000000000000000000000000000006F
:10019000000000000000000000000000000000005F
:1001A000000000000000000000000000000000004F
:1001B000830200008302000083020000830200002B
:1001C000830200008302000083020000830200001B
:1001D000830200008302000083020000830200000B
:1001E00083020000830200008302000083020000FB
:1001F00083020000830200008302000083020000EB
:10020000830200008302000083020000000000005F
:1002100083020000830200008302000083020000CA
:1002200083020000830200008302000083020000BA
:1002300083020000830200008302000083020000AA
:10024000830200008302000083020000830200009A
:10025000830200008302000083020000830200008A
:1002600083020000830200008302000000F00AB84D
:10027000FEE7FEE7FEE7FEE7FEE7FEE7FEE7FEE756
:10028000FEE7FEE700F002F800F02CF80AA090E884
:10029000000C82448344AAF10107DA4501D100F041
:1002A00021F8AFF2090EBAE80F0013F0010F18BFE2
:1002B000FB1A43F001031847040A0000140A000067
:1002C0000023002400250026103A28BF78C1FBD85F
:1002D000520728BF30C148BF0B6070471FB51FBD14
:1002E00010B510BD00F029F81146FFF7F7FF00F038
:1002F000ADFB00F047F803B4FFF7F2FF03BC00F0DA
:100300004FF8000072B6704762B67047EFF3108086
:1003100072B6704780F31088704730BF704702484C
:100320000249014A024B704768000020680400201F
:1003300068000020704770477047754600F02CF841
:10034000AE4605006946534620F00700854618B0C2
:1003500020B5FFF7E4FFBDE820404FF000064FF066
:1003600000074FF000084FF0000BAC46ACE8C009A6
:10037000ACE8C009ACE8C009ACE8C00921F007014D
:100380008D46704710B50446AFF300802046BDE8A7
:100390001040FFF7B0BF0000004870470000002089
:1003A00001491820ABBEFEE726000200704700009E
:1003B00081B00090FFE7009801380090FFE70098B7
:1003C0000028F8D1FFE701B07047000080B582B087
:1003D00045F21440C4F202000068C007002800F093
:1003E0008880FFE745F21C41C4F202010120086049
:1003F00040F26000C2F200000078012878D1FFE7E7
:1004000044F28550C0F20100FFF7D2FF45F2FC3004
:10041000C4F2020000688007002815D5FFE745F206
:10042000FC31C4F202010420086000F0B5F840F687
:100430008B40C0F2000000F0A7F944F28550C0F2F2
:100440000100FFF7B5FF52E045F2FC30C4F20200B4
:1004500000684007002815D5FFE745F2FC31C4F2DB
:1004600002010820086000F097F840F6A340C0F2AF
:10047000000000F089F944F28550C0F20100FFF756
:1004800097FF33E045F2FC30C4F202000068000739
:10049000002815D5FFE745F2FC31C4F20201022025
:1004A000086000F079F840F67440C0F2000000F0F7
:1004B0006BF944F28550C0F20100FFF779FF14E0B8
:1004C00000F06AF840F67440C0F2000000F05CF9F9
:1004D00045F2FC31C4F202010220086044F285506A
:1004E000C0F20100FFF764FFFFE7FFE7FFE7FFE768
:1004F000FFE745F21440C4F202000068C00600287D
:1005000048D5FFE700F040FA45F21C41C4F2020171
:100510001020086000F040F845F2FC30C4F2020000
:10052000006802281CD3FFE74CF62540C0F2020009
:10053000FFF73EFF45F2FC31C4F2020100200190BA
:10054000086000F029F840F66040C0F2000000F0BA
:100550001BF9019840F26001C2F20001087018E036
:100560004CF62540C0F20200FFF722FF45F2FC31B5
:10057000C4F202010220086040F67440C0F200009C
:1005800000F002F940F26001C2F20001012008709F
:10059000FFE7FFE702B080BD80B582B00020019088
:1005A000FFE70198B0F5FC7F09DAFFE701200021A1
:1005B00000F004FAFFE7019801300190F1E7002113
:1005C000084600F0F3F802B080BD000080B582B0AC
:1005D0004EF21C61C4F20F01086840F0010008608F
:1005E0004EF20810C4F20F00016841F001010160F1
:1005F0000068019044F20041C4F20001086840F034
:10060000C000086044F22041C4F20001086840F0D4
:100610002C000860086820F0C000086044F21C51FB
:10062000C4F20001086840F0EC00086044F22C516C
:10063000C4F200010868FF22CFF60F72104042F2A8
:100640000022C0F2200210430860086820F07F40BA
:10065000086044F22851C4F20001086820F0EC0060
:10066000086048F20401C4F20001086820F00200AA
:100670000860086820F00400086048F6C872C4F2F8
:100680000002106820F00F00106048F21002C4F25F
:1006900000021068102363F30700106048F20002A4
:1006A000C4F2000210684FF6C073984310601068DF
:1006B00020F0300010601068072363F3030010601F
:1006C000086840F00200086044F20021C4F2000112
:1006D000002008600190FFE70198092805D8FFE78E
:1006E000FFE7019801300190F6E744F20021C4F2DF
:1006F00000018020086000200090212100F05EF9B8
:1007000000986FF05F0100F059F90098042100F0A3
:1007100055F90098142100F051F90098202100F0BB
:100720004DF900980C2100F049F902B080BD00009D
:1007300080B584B08DF80F0001200021019100F0F8
:100740003DF901980290FFE70298042815DCFFE7C5
:100750009DF80F0000EB800040F68021C0F2000100
:1007600008440299084410F9A01C012000F026F961
:10077000FFE7029801300290E6E70120002100F037
:100780001DF904B080BD000080B582B00190FFE784
:100790000198007840B1FFE701980078FFF7C8FFA3
:1007A000019801300190F3E702B080BD80B582B0BE
:1007B0008DF807008DF806109DF807000B2805DC62
:1007C000FFE79DF80600062801DBFFE713E09DF830
:1007D0000700C0EBC00040F0800041B20020009054
:1007E00000F0ECF800989DF8061041F0400149B285
:1007F00000F0E4F8FFE702B080BD000081B04EF2E7
:100800007001C4F20F010091086840F000400860D8
:10081000086840F4006008604EF26002C4F20F0203
:10082000106820F4F8601060106800F5A86010608F
:10083000086820F07000086008680860086820F404
:1008400000500860086840F080400860086807228F
:1008500062F39C500860FFE74EF25000C4F20F00B4
:1008600000684006002801D4FFE7F5E74EF270016A
:10087000C4F20F01086820F40060086001B07047FE
:1008800081B04EF20810C4F20F00016841F020015F
:1008900001600068009045F22051C4F2020144F268
:1008A0004B30C4F64F40086045F22451C4F20201B7
:1008B000086840F01F00086045F22851C4F20201A8
:1008C000086820F01F00086045F22C51C4F20201B4
:1008D00008686FF31300086045F20041C4F202019A
:1008E0000E20086045F21C51C4F20201086840F075
:1008F0001F00086045F22041C4F20201086820F0A0
:100900001F00086045F21051C4F20201086840F06F
:100910001100086045F20441C4F20201086820F0A9
:100920001100086045F20841C4F20201086820F095
:100930001100086045F20C41C4F20201086820F081
:100940001100086045F21C41C4F202011120086048
:1009500045F21041C4F20201086840F0110008603D
:100960004EF21C41CEF2000108680A2262F31750D1
:1009700008604EF20011CEF20001086840F080409D
:10098000086001B07047000080B582B000208DF88B
:100990000700FFE79DF8070007280DDCFFE744F29A
:1009A0008550C0F20100FFF703FDFFE79DF8070047
:1009B00001308DF80700EDE702B080BD81B08DF801
:1009C00003008DF802109DF8030020BBFFE7FFE74E
:1009D00048F20C00C4F200000068C006002801D5EF
:1009E000FFE7F5E744F20011C4F2000100200860BF
:1009F0009DF9020048F20801C4F200010860FFE717
:100A000048F20C00C4F200000068C006002801D5BE
:100A1000FFE7F5E718E0FFE748F20C00C4F200003A
:100A200000688007002801D4FFE7F5E744F20011D1
:100A3000C4F20001402008609DF9020048F208015C
:100A4000C4F200010860FFE701B0704780B582B0D2
:100A500000200190FFF756FCFFF7D0FEFFF7B6FD30
:100A6000FFF70EFFFFF798FD40F66040C0F2000070
:100A7000FFF78AFEFFF748FCFFE7FFF74EFCFCE7B5
:100A8000000000000000005F0000000700070014E5
:100A90007F147F14242A7F2A1223130864623649A4
:100AA0005522500005030000001C22410000412295
:100AB0001C0014083E081408083E080800503000C6
:100AC0000008080808080060600000201008040200
:100AD0003E5149453E00427F400042615149462116
:100AE00041454B311814127F1027454545393C4A82
:100AF00049493001710905033649494936064949D2
:100B0000291E003636000000563600000814224127
:100B1000001414141414004122140802015109068F
:100B2000324979413E7E1111117E7F494949363E55
:100B3000414141227F4141221C7F494949417F096E
:100B40000909013E4149497A7F0808087F00417F31
:100B500041002040413F017F081422417F40404036
:100B6000407F020C027F7F0408107F3E4141413EDE
:100B70007F090909063E4151215E7F091929464630
:100B80004949493101017F01013F4040403F1F2059
:100B900040201F3F4038403F63140814630708702B
:100BA00008076151494543007F4141000204081094
:100BB000200041417F0004020102044040404040C7
:100BC000000102040020545454787F4844443838CB
:100BD00044444420384444487F3854545418087ED0
:100BE0000901020C5252523E7F0804047800447DF1
:100BF00040002040443D007F1028440000417F40D9
:100C0000007C041804787C08040478384444443890
:100C10007C14141408081414187C7C080404084874
:100C200054545420043F4440203C4040207C1C202D
:100C300040201C3C4030403C44281028440C50507C
:100C4000503C4464544C44000836410000007F008E
:100C500000004136080010080810081F247C241FDB
:100C60005468652053797374656D20206973206F13
:100C700066662E005468652063757272656E742016
:100C80004C454420697320526564005468652063B4
:100C9000757272656E74204C454420697320426CF5
:100CA0007565005468652063757272656E74204CBA
:100CB000454420697320477265656E00CC0C0000C6
:0C0CC0000000002068040000C0020000DA
:040000050000026D88
:00000001FF
