:020000040000FA
:10000000100700206D020000710200007302000062
:100010007502000077020000790200000000000075
:100020000000000000000000000000007B02000053
:100030007D020000000000007F020000810200003D
:10004000830200008302000083020000830200009C
:10005000830200008302000083020000830200008C
:10006000830200008302000083020000830200007C
:10007000830200008302000083020000830200006C
:10008000830200008302000083020000830200005C
:10009000830200008302000083020000830200004C
:1000A000830200008302000083020000830200003C
:1000B00083020000830200003D0400008302000070
:1000C000830200008302000083020000830200001C
:1000D000830200008302000083020000830200000C
:1000E00083020000830200008302000083020000FC
:1000F00083020000830200008302000083020000EC
:1001000083020000830200008302000083020000DB
:1001100083020000830200008302000083020000CB
:1001200083020000830200008302000083020000BB
:1001300083020000830200008302000083020000AB
:1001400000000000000000000000000000000000AF
:10015000830200008302000083020000830200008B
:10016000000000000000000000000000000000008F
:10017000000000000000000000000000000000007F
:10018000000000000000000000000000000000006F
:10019000000000000000000000000000000000005F
:1001A000000000000000000000000000000000004F
:1001B000830200008302000083020000830200002B
:1001C000830200008302000083020000830200001B
:1001D000830200008302000083020000830200000B
:1001E00083020000830200008302000083020000FB
:1001F00083020000830200008302000083020000EB
:10020000830200008302000083020000000000005F
:1002100083020000830200008302000083020000CA
:1002200083020000830200008302000083020000BA
:1002300083020000830200008302000083020000AA
:10024000830200008302000083020000830200009A
:10025000830200008302000083020000830200008A
:1002600083020000830200008302000000F00AB84D
:10027000FEE7FEE7FEE7FEE7FEE7FEE7FEE7FEE756
:10028000FEE7FEE700F002F800F03AF80AA090E876
:10029000000C82448344AAF10107DA4501D100F041
:1002A0002FF8AFF2090EBAE80F0013F0010F18BFD4
:1002B000FB1A43F0010318479C090000BC09000029
:1002C000103A24BF78C878C1FAD8520724BF30C882
:1002D00030C144BF04680C60704700000023002454
:1002E00000250026103A28BF78C1FBD8520728BF46
:1002F00030C148BF0B6070471FB51FBD10B510BDA2
:1003000000F029F81146FFF7F7FF00F053FC00F06A
:1003100047F803B4FFF7F2FF03BC00F04FF800000A
:1003200072B6704762B67047EFF3108072B67047CE
:1003300080F31088704730BF704702480249014A75
:10034000024B70471003002010070020100300200C
:10035000704770477047754600F02CF8AE460500B0
:100360006946534620F00700854618B020B5FFF7D0
:10037000E4FFBDE820404FF000064FF000074FF0CB
:1003800000084FF0000BAC46ACE8C009ACE8C0096F
:10039000ACE8C009ACE8C00921F007018D46704700
:1003A00010B50446AFF300802046BDE81040FFF7CB
:1003B000B0BF000000487047A80100200149182084
:1003C000ABBEFEE7260002007047000081B000903F
:1003D000FFE7009801380090FFE700980028F8D167
:1003E000FFE701B07047000080B500F007FA40F267
:1003F0001F00C2F2000000F009FB40F24400C2F20C
:10040000000000F003FB40F25500C2F2000000F0D3
:10041000FDFA40F27500C2F2000000F0F7FA40F277
:100420009800C2F2000000F0F1FA00F031FA40F258
:100430000821C2F20001087080BD000080B540F2C2
:100440000820C2F20000007832285DD1FFE745F2B3
:100450001440C4F202000068C00600282BD5FFE754
:1004600044F28550C0F20100FFF7B0FF45F21C4195
:10047000C4F202011020086040F20920C2F200001C
:10048000017801314AF6AB22CAF6AA22A1FB023258
:10049000920802EB4202A1EB42010170017840F6A2
:1004A0003C40C0F2000050F8210045F2FC31C4F29B
:1004B00002010860FFE745F21440C4F20200006840
:1004C000C00700B3FFE744F28550C0F20100FFF718
:1004D0007DFF45F21C41C4F202010120086040F298
:1004E0000920C2F20000017840F63C40C0F2000052
:1004F00010F8210000F034FB40F20821C2F20001A4
:1005000030200870FFE7FFE780BD000081B04EF2A9
:100510000810C4F20F00016841F02001016000687A
:10052000009045F22051C4F2020144F24B30C4F66F
:100530004F40086045F22451C4F20201086840F0BF
:100540001F00086045F22851C4F20201086820F03B
:100550001F00086045F22C51C4F2020108686FF3D5
:100560001300086045F20041C4F20201086840F03F
:100570000E000860086820F01100086045F21C5168
:10058000C4F20201086840F01F00086045F22041F3
:10059000C4F20201086820F01F00086045F2105103
:1005A000C4F20201086840F01100086045F20441FD
:1005B000C4F20201086820F01100086045F2084109
:1005C000C4F20201086820F01100086045F20C41F5
:1005D000C4F20201086840F01100086045F21C41B5
:1005E000C4F202011120086045F21041C4F2020178
:1005F000086840F0110008604EF21C41CEF2000184
:1006000008680A2262F3175008604EF20011CEF219
:100610000001086840F08040086001B070470000A9
:1006200080B582B000F0EAF800F0E8F840F2281057
:10063000C2F2000000F0EAF900F02AF98DF8070094
:100640009DF90700623801460091152800F2688084
:100650000099DFE801F01A655665652965656565ED
:100660006565656538650B656565654745F2FC310F
:10067000C4F202010220086040F28410C2F20000BD
:1006800000F0C4F900F0BAF851E045F2FC31C4F2D0
:1006900002010420086040F20000C2F2000000F0F5
:1006A000B5F900F0ABF842E045F2FC31C4F20201CA
:1006B0000820086040F2E400C2F2000000F0A6F951
:1006C00000F09CF833E045F2FC31C4F20201062050
:1006D000086040F27210C2F2000000F097F900F0DA
:1006E0008DF824E045F2FC31C4F202010E200860CE
:1006F00040F29410C2F2000000F088F900F07EF899
:1007000015E045F2FC31C4F202010020086040F21D
:100710001200C2F2000000F079F900F06FF806E074
:1007200045F2FC31C4F2020100200860FFE702B08C
:1007300080BD000080B540F20821C2F200013220E5
:10074000087000F00DFA00F073F945F2FC31C4F2C4
:1007500002010860FFE740F20820C2F200000078C2
:10076000322803D1FFE7FFF7E6FDF4E780BD000084
:1007700080B584B0332000F0F3F900F03FF840F288
:10078000F600C2F2000000F041F940F20A20C2F285
:1007900000000290FF2100F08DF8029800F0F8F9B7
:1007A0000D2000F0DDF900F043F98DF80F00FFE7B0
:1007B0009DF80F00312801D0FFE7F9E740F20A2049
:1007C000C2F200000190FF2100F044F900F016F899
:1007D000019800F01BF90D2000F000F945F2FC3102
:1007E000C4F202010020086040F20821C2F20001B8
:1007F000302008708DF80F0004B080BD80B50D204A
:1008000000F0ECF80A2000F0E9F880BD81B04EF26B
:100810007001C4F20F010091086840F000400860C8
:10082000086840F4006008604EF26002C4F20F02F3
:10083000106820F4F8601060106800F5A86010607F
:10084000086820F07000086008680860086820F4F4
:1008500000500860086840F080400860086807227F
:1008600062F39C500860FFE74EF25000C4F20F00A4
:1008700000684006002801D4FFE7F5E74EF270015A
:10088000C4F20F01086820F40060086001B07047EE
:10089000FFE74CF21800C4F200000068C006002810
:1008A00001D5FFE7F5E74CF20000C4F20000006854
:1008B000C0B2704780B584B00390ADF80A10002034
:1008C0000190FFF7E5FF8DF80300FFE79DF90300B6
:1008D0000D282ED0FFE79DF9030008280ED1FFE771
:1008E000019850B1FFE7039801380390019801384F
:1008F0000190082000F072F8FFE715E00198BDF8BC
:100900000A1088420FDAFFE79DF803000399087088
:100910000398013003900198013001909DF8030085
:1009200000F05CF8FFE7FFE7FFF7B2FF8DF8030088
:10093000CCE703990020087004B080BD4EF204118A
:10094000C4F20F01086840F0010008604EF208117F
:10095000C4F20F01086840F0010008604CF2300159
:10096000C4F20001002008604CF22402C4F200022C
:100970001B2010604CF22802C4F200020820106014
:100980004CF22C02C4F2000270201060086840F2A1
:1009900001321043086044F22041C4F200010868AB
:1009A00040F00300086044F21C51C4F200010868E2
:1009B00040F00300086044F22C51C4F200010868C2
:1009C000112262F30700086044F22851C4F20001CA
:1009D000086820F0030008607047000081B08DF8BF
:1009E0000300FFE74CF21800C4F200000068800624
:1009F000002801D5FFE7F5E79DF803004CF2000160
:100A0000C4F20001086001B07047000080B582B0F8
:100A10000190FFE70198007840B1FFE70198007866
:100A2000FFF7DCFF019801300190F3E702B080BDD1
:100A3000FFE74DF21800C4F200000068C00600286D
:100A400001D5FFE7F5E74DF20000C4F200000068B1
:100A5000C0B2704780B586B00590ADF81210002086
:100A60000390FFF7E5FF8DF80B00FFE79DF90B10F2
:100A700000200D2901900AD0FFE70399BDF812006C
:100A8000421E00209142B8BF01200190FFE701986B
:100A9000C00778B1FFE79DF80B000599087005982D
:100AA00001300590039801300390FFF7C1FF8DF8E6
:100AB0000B00DBE705990020087006B080BD000040
:100AC0004EF21861C4F20F01086840F0020008609D
:100AD0004EF20811C4F20F01086840F002000860ED
:100AE0004DF23001C4F20001086820F001000860F6
:100AF0004DF22402C4F200021B2010604DF22802C5
:100B0000C4F20002082010604DF22C02C4F2000270
:100B10007020106040F20130086045F22041C4F2BC
:100B20000001086840F00300086045F22C51C4F24F
:100B300000010868112262F30700086045F21C51A9
:100B4000C4F20001086840F00300086045F2285133
:100B5000C4F20001086820F003000860704700003C
:100B600081B08DF80300FFE74DF21800C4F20000D9
:100B700000688006002801D5FFE7F5E79DF803002F
:100B80004DF20001C4F20001086001B0704700009E
:100B900080B582B00190FFE70198007840B1FFE78F
:100BA00001980078FFF7DCFF019801300190F3E72E
:100BB00002B080BD80B582B000200190FFF7B0FB8D
:100BC000FFF7BCFEFFF77CFFFFF720FEFFF79EFC60
:100BD000FFF7A8FBFFE7FFF707FC40F20820C2F28F
:100BE0000000007801460091312808D0FFE7009806
:100BF000322807D0FFE70098332810D01CE0FFF719
:100C00000FFD1AE040F63C40C0F20000406945F29A
:100C1000FC31C4F202010860FFF78CFD0DE040F6E4
:100C20003C40C0F20000406845F2FC31C4F20201D1
:100C30000860FFF79DFD00E0FFE7CCE70200000041
:100C40000800000004000000060000000E00000084
:100C500000000000740C000000000020A80100004B
:100C6000C00200001C0E0000A80100206805000062
:100C7000DC02000020426C7565204C454420206950
:100C800073206F6E2E00204C4544206973206F66E0
:100C9000662E0057656C636F6D6520746F20434549
:100CA0004353203434372050726F6A6563742032A6
:100CB00020554152540A0D0009312E2050433C2D3D
:100CC0003E4D43555F310A0D0009322E204D4355EC
:100CD0005F313C2D3E4D43555F32204C454420430F
:100CE0006F6E74726F6C0A0D0009332E2050433CF6
:100CF0002D3E4D43555F313C2D3E4D43555F3220D7
:100D00004D657373656E6765720A0D00506C6561A1
:100D100073652063686F6F7365206120636F6D6D0D
:100D2000756E69636174696F6E206D6F64652028EC
:100D3000747970652031206F722032206F722033F9
:100D400020666F6C6C6F77656420627920726574C1
:100D500075726E293A0A0D0020477265656E204C47
:100D60004544206973206F6E2E00506C6561736579
:100D700020656E7465722061206D657373616765AF
:100D800020286120737472696E67206F6620636823
:100D90006172616374657273293A2000506C6561F9
:100DA000736520656E746572206120636F6C6F726D
:100DB00028723D5245442C20673D475245454E2CF4
:100DC00020623D424C55452C20703D505552504CB0
:100DD000452C20773D57484954452C20643D4441DB
:100DE000524B293A2000205075706C65204C4544C8
:100DF000206973206F6E2E0020526564204C45449C
:100E0000206973206F6E2E00205768697465204C2E
:0C0E10004544206973206F6E2E00000026
:040000050000026D88
:00000001FF
