:020000040000FA
:10000000600400206D020000710200007302000015
:100010007502000077020000790200000000000075
:100020000000000000000000000000007B02000053
:100030007D020000000000007F020000810200003D
:10004000830200008302000083020000830200009C
:10005000830200008302000083020000830200008C
:10006000830200008302000083020000830200007C
:10007000830200008302000083020000830200006C
:10008000830200008302000083020000830200005C
:10009000830200008302000083020000830200004C
:1000A000830200008302000083020000830200003C
:1000B000830200008302000083020000830200002C
:1000C000830200008302000083020000830200001C
:1000D000830200008302000083020000830200000C
:1000E00083020000830200008302000083020000FC
:1000F00083020000830200008302000083020000EC
:1001000083020000830200008302000083020000DB
:1001100083020000830200008302000083020000CB
:1001200083020000830200008302000083020000BB
:1001300083020000830200008302000083020000AB
:1001400000000000000000000000000000000000AF
:10015000830200008302000083020000830200008B
:10016000000000000000000000000000000000008F
:10017000000000000000000000000000000000007F
:10018000000000000000000000000000000000006F
:10019000000000000000000000000000000000005F
:1001A000000000000000000000000000000000004F
:1001B000830200008302000083020000830200002B
:1001C000830200008302000083020000830200001B
:1001D000830200008302000083020000830200000B
:1001E00083020000830200008302000083020000FB
:1001F00083020000830200008302000083020000EB
:10020000830200008302000083020000000000005F
:1002100083020000830200008302000083020000CA
:1002200083020000830200008302000083020000BA
:1002300083020000830200008302000083020000AA
:10024000830200008302000083020000830200009A
:10025000830200008302000083020000830200008A
:1002600083020000830200008302000000F00AB84D
:10027000FEE7FEE7FEE7FEE7FEE7FEE7FEE7FEE756
:10028000FEE7FEE700F002F800F02CF80AA090E884
:10029000000C82448344AAF10107DA4501D100F041
:1002A00021F8AFF2090EBAE80F0013F0010F18BFE2
:1002B000FB1A43F001031847B4040000C404000013
:1002C0000023002400250026103A28BF78C1FBD85F
:1002D000520728BF30C148BF0B6070471FB51FBD14
:1002E00010B510BD00F029F81146FFF7F7FF00F038
:1002F000BBF900F047F803B4FFF7F2FF03BC00F0CE
:100300004FF8000072B6704762B67047EFF3108086
:1003100072B6704780F31088704730BF704702484C
:100320000249014A024B704760000020600400202F
:1003300060000020704770477047754600F02CF849
:10034000AE4605006946534620F00700854618B0C2
:1003500020B5FFF7E4FFBDE820404FF000064FF066
:1003600000074FF000084FF0000B21F00701AC46EA
:10037000ACE8C009ACE8C009ACE8C009ACE8C00909
:100380008D46704710B50446AFF300802046BDE8A7
:100390001040FFF7B0BF0000004870470000002089
:1003A00001491820ABBEFEE726000200704710B5D9
:1003B0000D2000F013F90A2000F010F910BD000024
:1003C0001D48006F40F000401B4908670846006F59
:1003D00040F4006008670846006E20F4F860086684
:1003E0000846006E00F5A86008660846006F20F019
:1003F000700008670846006F08670846006F20F421
:10040000005008670846006F40F0804008670846C3
:10041000006F20F0FE5000F1E070086700BF064852
:10042000006D00F040000028F9D00348006F20F470
:10043000006001490867704700E00F4000BF0548B1
:10044000806900F010000028F9D102480068C0B2AD
:100450007047000000C0004030B502460D46002342
:10046000FFF7ECFF44B213E0082C06D16BB1521E2B
:100470005B1E082000F0B2F807E0AB4205DA14700A
:10048000521C5B1CE0B200F0A9F8FFF7D7FF44B2A2
:100490000D2CE9D10020107030BD10B500230024D0
:1004A000FFF7CCFF42B21AE0302A0BDB392A09DC15
:1004B000A2F130000A2103FB0103641CD0B200F05A
:1004C0008DF809E0082A07D134B10A20B3FBF0F314
:1004D000641ED0B200F082F8FFF7B0FF42B20D2ADE
:1004E000E2D1184610BD30B500230024FFF7A6FF67
:1004F00042B228E01025302A04DB392A02DCA2F1BE
:1005000030050CE0412A04DB462A02DCA2F1370563
:1005100005E0612A03DB662A01DCA2F157050F2DF5
:1005200006D805EB0313641CD0B200F057F807E0BF
:10053000082A05D124B11B09641ED0B200F04EF880
:10054000FFF77CFF42B20D2AD4D1184630BD00001F
:100550001D48006840F001001C49C1F8040108462C
:10056000D0F8080140F00100C1F808011848006BFC
:1005700020F00100164908631B20486208208862A9
:100580007020C8620846006B40F001000863114803
:10059000006840F003000F4908600E48FC30006816
:1005A00040F003000B49FC3108600B48006820F064
:1005B000FF00113008490860081F006820F00300A0
:1005C000091F08607047000004E10F4000E00F4081
:1005D00000C00040204400402C45004000BF0449BA
:1005E000896901F020010029F9D1014908607047AB
:1005F00000C0004000B5024603E01078FFF7EEFFB0
:10060000521C10780028F8D100BD30B504460A2CE1
:100610000AD30A20B4FBF0F52846FFF7F6FF0A20BC
:10062000B4FBF0F100FB114404F13001C8B2FFF754
:10063000D5FF30BD10B50446102C07D32009FFF7B5
:10064000F9FF04F00F00FFF7F5FF0CE00A2C05D2CC
:1006500004F13001C8B2FFF7C1FF04E004F1370133
:10066000C8B2FFF7BBFF10BD86B0FFF7A9FEFFF7CA
:100670006FFFFFF79CFE412404E02046FFF7AEFF2A
:10068000601CC4B25A2CF8DDFFF791FE2020FFF762
:10069000A5FF612404E02046FFF7A0FF601CC4B260
:1006A0007A2CF8DDFFF783FE2D20FFF797FF2D2032
:1006B000FFF794FF3E20FFF791FFFFF778FE30E051
:1006C00018A0FFF797FF132101A8FFF7C5FEFFF75A
:1006D0006EFE17A0FFF78EFF01A8FFF78BFFFFF755
:1006E00066FE16A0FFF786FFFFF7D7FE0546FFF769
:1006F0005EFE15A0FFF77EFF2846FFF786FFFFF797
:1007000056FE14A0FFF776FFFFF7EDFE0546FFF754
:100710004EFE13A0FFF76EFF2846FFF78BFFFFF793
:1007200046FECDE7496E537472696E673A20000049
:10073000204F7574537472696E673D00496E55445D
:1007400065633A2000000000204F757455446563CE
:100750003D000000496E554865783A2000000000D1
:10076000204F7574554865783D0000007C070000F7
:0C0770000000002060040000C002000037
:040000050000026D88
:00000001FF
