:020000040000FA
:10000000900400206D0200007102000073020000E5
:100010007502000077020000790200000000000075
:100020000000000000000000000000007B02000053
:100030007D020000000000007F020000810200003D
:10004000830200008302000083020000830200009C
:1000500083020000350600008302000083020000D6
:10006000830200008302000083020000830200007C
:10007000830200008302000083020000830200006C
:10008000830200008302000083020000830200005C
:10009000830200008302000083020000830200004C
:1000A000830200008302000083020000830200003C
:1000B000830200008302000083020000830200002C
:1000C000830200008302000083020000830200001C
:1000D000830200008302000083020000830200000C
:1000E00083020000830200008302000083020000FC
:1000F00083020000830200008302000083020000EC
:1001000083020000830200008302000083020000DB
:1001100083020000830200008302000083020000CB
:1001200083020000830200008302000083020000BB
:1001300083020000830200008302000083020000AB
:1001400000000000000000000000000000000000AF
:10015000830200008302000083020000830200008B
:10016000000000000000000000000000000000008F
:10017000000000000000000000000000000000007F
:10018000000000000000000000000000000000006F
:10019000000000000000000000000000000000005F
:1001A000000000000000000000000000000000004F
:1001B000830200008302000083020000830200002B
:1001C000830200008302000083020000830200001B
:1001D000830200008302000083020000830200000B
:1001E00083020000830200008302000083020000FB
:1001F00083020000830200008302000083020000EB
:10020000830200008302000083020000000000005F
:1002100083020000830200008302000083020000CA
:1002200083020000830200008302000083020000BA
:1002300083020000830200008302000083020000AA
:10024000830200008302000083020000830200009A
:10025000830200008302000083020000830200008A
:1002600083020000830200008302000000F00AB84D
:10027000FEE7FEE7FEE7FEE7FEE7FEE7FEE7FEE756
:10028000FEE7FEE700F002F800F02CF80AA090E884
:10029000000C82448344AAF10107DA4501D100F041
:1002A00021F8AFF2090EBAE80F0013F0010F18BFE2
:1002B000FB1A43F001031847040A0000140A000067
:1002C0000023002400250026103A28BF78C1FBD85F
:1002D000520728BF30C148BF0B6070471FB51FBD14
:1002E00010B510BD00F029F81146FFF7F7FF00F038
:1002F00039FC00F047F803B4FFF7F2FF03BC00F04D
:100300004FF8000072B6704762B67047EFF3108086
:1003100072B6704780F31088704730BF704702484C
:100320000249014A024B70479000002090040020CF
:1003300090000020704770477047754600F02CF819
:10034000AE4605006946534620F00700854618B0C2
:1003500020B5FFF7E4FFBDE820404FF000064FF066
:1003600000074FF000084FF0000BAC46ACE8C009A6
:10037000ACE8C009ACE8C009ACE8C00921F007014D
:100380008D46704710B50446AFF300802046BDE8A7
:100390001040FFF7B0BF0000004870470000002089
:1003A00001491820ABBEFEE726000200704700009E
:1003B00080B50D2000F008FB0A2000F005FB80BD91
:1003C00082B001904EF27001C4F20F0100910868F2
:1003D00040F000400860086840F4006008604EF299
:1003E0006002C4F20F02106820F4F8601060106818
:1003F00000F5A8601060086820F0700008600868C8
:100400000860086820F400500860086840F08040E8
:100410000860086820F0FE50019A00EB82500860E6
:10042000FFE74EF25000C4F20F00006840060028BB
:1004300001D4FFE7F5E74EF27001C4F20F0108683E
:1004400020F40060086002B07047000082B00090A5
:1004500040F27400C2F20000006840F27001C2F283
:1004600000010968884203D1FFE70020019013E0F2
:1004700040F27001C2F20001086800F00F0240F281
:100480006000C2F20000805C009A107008680130C1
:10049000086001200190FFE7019802B0704700005A
:1004A00080B582B0FFF732FF019040F27001C2F2D6
:1004B00000010020086040F27401C2F200010860EF
:1004C0000198FFF727FF02B080BD000082B08DF8D1
:1004D000030040F27400C2F20000006840F27001B4
:1004E000C2F200010968401A000918B1FFE70020B4
:1004F000019013E09DF8030040F27401C2F2000184
:100500000A6802F00F0340F26002C2F20002D05407
:1005100008680130086001200190FFE7019802B0EF
:100520007047000040F27400C2F20000006840F220
:100530007001C2F200010968401A80B270470000E1
:1005400082B0009040F28C00C2F20000006840F2DD
:100550008801C2F200010968884203D1FFE7002048
:10056000019013E040F28801C2F20001086800F037
:100570000F0240F27800C2F20000805C009A107016
:1005800008680130086001200190FFE7019802B07F
:100590007047000080B582B0FFF7B8FE019040F2CE
:1005A0008801C2F200010020086040F28C01C2F212
:1005B000000108600198FFF7ADFE02B080BD0000A9
:1005C00082B08DF8030040F28C00C2F20000006897
:1005D00040F28801C2F200010968401A000918B10E
:1005E000FFE70020019013E09DF8030040F28C012A
:1005F000C2F200010A6802F00F0340F27802C2F270
:100600000002D05408680130086001200190FFE723
:10061000019802B07047000040F28C00C2F2000066
:10062000006840F28801C2F200010968401A80B2F5
:100630007047000080B54CF23C00C4F20000006836
:100640008006002816D5FFE74CF24401C4F20001F1
:100650002020086000F05CFAFFF7DEFF48B9FFE7F2
:100660004CF23801C4F20001086820F02000086054
:10067000FFE7FFE74CF23C00C4F200000068C00650
:10068000002809D5FFE74CF24401C4F20001102014
:10069000086000F013FAFFE74CF23C00C4F20000DF
:1006A00000684006002809D5FFE74CF24401C4F277
:1006B00000014020086000F001FAFFE780BD000063
:1006C00080B582B0FFE70DF10700FFF7BFFE08B964
:1006D000FFE7F8E79DF9070002B080BD80B584B060
:1006E0000390ADF80A1000200190FFF7E9FF8DF8A4
:1006F0000300FFE79DF903000D282ED0FFE79DF9C9
:10070000030008280ED1FFE7019850B1FFE70398D6
:1007100001380390019801380190082000F054F945
:10072000FFE715E00198BDF80A1088420FDAFFE7ED
:100730009DF8030003990870039801300390019815
:10074000013001909DF9030000F03EF9FFE7FFE75B
:10075000FFF7B6FF8DF80300CCE70399002008707F
:1007600004B080BD80B584B0002003900290FFF7F4
:10077000A7FF8DF80700FFE79DF907000D283AD085
:10078000FFE79DF90700302816DBFFE79DF907001A
:10079000392811DCFFE7039800EB80019DF9070081
:1007A00000EB4100303803900298013002909DF92F
:1007B000070000F009F919E09DF90700082814D195
:1007C000FFE7029888B1FFE703984CF6CD41CCF6DD
:1007D000CC41A0FB0110C0080390029801380290A0
:1007E0009DF9070000F0F0F8FFE7FFE7FFF768FF6B
:1007F0008DF80700C0E7039804B080BD80B584B0D1
:10080000002003900190FFF75BFF8DF80300FFE7E6
:100810009DF903000D285BD0FFE7102002909DF9A1
:10082000030030280ADBFFE79DF90300392805DCC7
:10083000FFE79DF90300303802901FE09DF90300A7
:1008400041280ADBFFE79DF90300462805DCFFE7A6
:100850009DF90300373802900FE09DF903006128ED
:100860000ADBFFE79DF90300662805DCFFE79DF939
:10087000030057380290FFE7FFE7FFE702980F28D1
:100880000DD8FFE70399029800EB0110039001983F
:10089000013001909DF9030000F096F813E09DF9F6
:1008A000030008280ED1FFE7019858B1FFE703982D
:1008B000000903900198013801909DF9030000F0B0
:1008C00083F8FFE7FFE7FFF7FBFE8DF803009FE7E4
:1008D000039804B080BD000080B54EF21861C4F2E8
:1008E0000F01086840F0010008604EF20861C4F290
:1008F0000F01086840F001000860FFF7D1FDFFF725
:1009000049FE4CF23001C4F20001086820F00100F9
:1009100008604CF22402C4F200021B2010604CF26A
:100920002802C4F20002082010604CF22C02C4F22B
:100930000002702010604CF23402C4F20002106811
:1009400020F03F001060106810604CF23802C4F2D2
:100950000002106840F070001060086840F2013238
:100960001043086044F22041C4F20001086840F0DE
:100970000300086044F21C51C4F20001086840F012
:100980000300086044F22C51C4F2000108681122EF
:1009900062F30700086044F22851C4F2000100200D
:1009A00008604EF20441CEF200010868402262F372
:1009B0000F2008604EF20011CEF2000120200860E6
:1009C000FFF7A2FC80BD000080B582B08DF8070063
:1009D000FFE79DF90700FFF7F3FD08B9FFE7F8E728
:1009E0004CF23801C4F200010091086820F02000A8
:1009F000086000F08DF80099086840F02000086059
:100A000002B080BD80B582B00190FFE70198007808
:100A100048B1FFE7019890F90000FFF7D5FF019872
:100A200001300190F2E702B080BD000080B582B0D5
:100A3000019001980A2816D3FFE701984CF6CD41A2
:100A4000CCF6CC410091A0FB0110C008FFF7EEFFEF
:100A500000990198A0FB0121C90801EB8101A0EBDD
:100A600041000190FFE70198303040B2FFF7ACFF42
:100A700002B080BD80B582B00190019810280AD3E1
:100A8000FFE701980009FFF7F5FF019800F00F005C
:100A9000FFF7F0FF10E00198092806D8FFE701985A
:100AA000303040B2FFF790FF05E00198373040B298
:100AB000FFF78AFFFFE7FFE702B080BD80B582B095
:100AC000FFE74CF21800C4F2000001680020C906DC
:100AD0000029009009D4FFE7FFF724FD014600201C
:100AE0000F29B8BF01200090FFE70098C00760B150
:100AF000FFE74CF20000C4F2000000688DF8070028
:100B00009DF90700FFF7E2FCDBE702B080BD0000C3
:100B100080B582B0FFE74CF21800C4F20000016813
:100B2000002089060029009009D4FFE7FFF774FD33
:100B3000014600200029C8BF01200090FFE700986F
:100B4000C00760B1FFE70DF10700FFF7F9FC9DF961
:100B500007004CF20001C4F200010860DBE702B0BC
:100B600080BD000080B58AB0002009900720FFF703
:100B700027FCFFF7B1FEFFF71BFC41208DF8230097
:100B8000FFE79DF923005A280BDCFFE79DF92300BE
:100B9000FFF71AFFFFE79DF8230001308DF82300CF
:100BA000EFE7FFF705FC2020FFF70EFF61208DF82F
:100BB0002300FFE79DF923007A280BDCFFE79DF96E
:100BC0002300FFF701FFFFE79DF8230001308DF8B8
:100BD0002300EFE7FFF7ECFB2D200190FFF7F4FE79
:100BE0000198FFF7F1FE3E20FFF7EEFEFFF7E0FB76
:100BF000FFE740F68740C0F20000FFF703FF0DF16A
:100C00000F0000901321FFF769FDFFF7D1FB40F6BD
:100C1000A540C0F20000FFF7F5FE0098FFF7F2FED6
:100C2000FFF7C6FB40F67E40C0F20000FFF7EAFE89
:100C3000FFF798FD0290FFF7BBFB40F69B40C0F228
:100C40000000FFF7DFFE0298FFF7F0FEFFF7B0FBB2
:100C500040F69240C0F20000FFF7D4FEFFF7CEFD51
:100C60000290FFF7A5FB40F6B140C0F20000FFF78D
:100C7000C9FE0298FFF7FEFEFFF79AFBB9E7496E3F
:100C8000554465633A2000496E537472696E673A41
:100C90002000496E554865783A2000204F757455FC
:100CA0004465633D00204F7574537472696E673DEF
:100CB00000204F7574554865783D0000CC0C00004D
:0C0CC0000000002090040000C0020000B2
:040000050000026D88
:00000001FF
